:100000000C9462000C948A000C948A000C948A0070
:100010000C948A000C948A000C948A000C948A0038
:100020000C948A000C948A000C948A000C948A0028
:100030000C948A000C948A000C948A000C948A0018
:100040000C9449040C948A000C948A000C948A0045
:100050000C948A000C948A000C948A000C948A00F8
:100060000C948A000C948A000000000024002700F1
:100070002A0000000000250028002B0000000000DE
:1000800023002600290004040404040404040202DA
:100090000202020203030303030301020408102007
:1000A0004080010204081020010204081020000012
:1000B0000008000201000003040700000000000027
:1000C0000000DC0511241FBECFEFD8E0DEBFCDBF9E
:1000D00011E0A0E0B1E0ECECF0E102C005900D927F
:1000E000AC33B107D9F721E0ACE3B1E001C01D9218
:1000F000AA36B207E1F710E0C2E6D0E004C02197CB
:10010000FE010E945908C136D107C9F70E94930425
:100110000C9464080C940000E0915201F09153019A
:100120000190F081E02D682F82E591E00994CF9253
:10013000DF92EF92FF920F931F93CF93DF936C01A7
:100140007A018B01C0E0D0E0CE15DF0589F0D8013F
:100150006D918D01D601ED91FC910190F081E02D22
:10016000C6010995892B11F47E0102C02196ECCFBE
:10017000C701DF91CF911F910F91FF90EF90DF901A
:10018000CF900895833081F028F4813099F0823047
:10019000A1F008958730A9F08830B9F08430D1F407
:1001A000809180008F7D03C0809180008F77809345
:1001B0008000089584B58F7702C084B58F7D84BD9B
:1001C00008958091B0008F7703C08091B0008F7D3B
:1001D0008093B0000895CF93DF93E6EBF0E0849135
:1001E000E2EAF0E0D491EEE8F0E0C491CC2391F0A3
:1001F00081110E94C200EC2FF0E0EE0FFF1FE458C7
:10020000FF4FA591B491EC91ED2381E090E021F4B2
:1002100080E002C080E090E0DF91CF9108951F93CD
:10022000CF93DF93282F30E0F901E255FF4F8491FF
:10023000F901E656FF4FD491F901EA57FF4FC491F7
:10024000CC23C9F0162F81110E94C200EC2FF0E0E0
:10025000EE0FFF1FEE58FF4FA591B4918FB7F894A2
:10026000111105C09C91ED2FE095E92302C0EC919E
:10027000ED2BEC938FBFDF91CF911F910895CF931A
:10028000DF9390E0FC01E656FF4F2491FC01EA5712
:10029000FF4F8491882361F190E0880F991FFC0142
:1002A000E859FF4FC591D491FC01EE58FF4FA5913D
:1002B000B491611109C09FB7F89488812095822379
:1002C0008883EC912E230BC0623061F49FB7F894C1
:1002D0003881822F809583238883EC912E2B2C9359
:1002E0009FBF06C08FB7F894E8812E2B28838FBF5D
:1002F000DF91CF9108953FB7F8948091410190919B
:100300004201A0914301B091440126B5A89B05C0CC
:100310002F3F19F00196A11DB11D3FBFBA2FA92F84
:10032000982F8827820F911DA11DB11DBC01CD0101
:1003300042E0660F771F881F991F4A95D1F70895ED
:100340008F929F92AF92BF92CF92DF92EF92FF92E5
:100350006B017C010E947B014B015C01C114D10443
:10036000E104F104F1F00E947B01DC01CB0188196A
:100370009909AA09BB09883E9340A105B10570F30C
:1003800021E0C21AD108E108F10888EE880E83E066
:10039000981EA11CB11CC114D104E104F10419F789
:1003A000DDCFFF90EF90DF90CF90BF90AF909F9008
:1003B0008F900895CF93DF93EC0160E08E810E94CF
:1003C0000F0161E08E810E940F0160E08E810E942A
:1003D0000F018BE891E00197F1F7DF91CF9108953C
:1003E000CF92DF92EF92FF920F931F93CF93DF9301
:1003F0007C016C0187E0C80ED11CC0E0D0E0062F64
:1004000010E0B8010C2E02C0759567950A94E2F7CA
:100410006170F60181916F010E940F012196C43035
:10042000D10579F7C701DF91CF911F910F91FF900F
:10043000EF90DF90CF900C94DA01CF92DF92EF92A1
:10044000FF920F931F93CF93DF93EC01F62E642F4F
:100450008C810E940F018D818F3F19F060E00E9416
:100460000F018F850F2D10E084FF25C06E0187E0FE
:10047000C80ED11CE12CF12CB8010E2C02C07595D0
:1004800067950A94E2F76170F60181916F010E940D
:100490000F01FFEFEF1AFF0A88E0E816F10461F799
:1004A000CE01DF91CF911F910F91FF90EF90DF90E0
:1004B000CF900C94DA01B80184E0759567958A9520
:1004C000E1F7CE010E94F0016F2DCE01DF91CF91B7
:1004D0001F910F91FF90EF90DF90CF900C94F0015F
:1004E00041E00E941D0281E090E0089540E00C94FC
:1004F0001D02EF92FF920F931F93CF93DF93EC01B6
:10050000623018F08F8588608F876B8B1C8A80E43F
:100510008D8B80E18E8B80E58F8B61E08C810E94DA
:100520003F018D818F3F19F061E00E943F0161E042
:100530008E810E943F017E0187E0E80EF11C00E001
:1005400010E08F8584FD03C084E090E002C088E065
:1005500090E0081719074CF461E0F70181917F01E1
:100560000E943F010F5F1F4FECCF8BE39DE001978F
:10057000F1F760E08C810E940F0160E08E810E94A3
:100580000F018D818F3F19F060E00E940F016F8590
:1005900064FD1DC063E0CE010E94F0010BE416E48F
:1005A000C8010197F1F763E0CE010E94F001C80194
:1005B0000197F1F763E0CE010E94F00183E592E03C
:1005C0000197F1F762E0CE010E94F00116C060626F
:1005D000CE010E9476028BE496E40197F1F76F85D5
:1005E0006062CE010E94760283E592E00197F1F706
:1005F0006F856062CE010E9476026F856062CE01D7
:100600000E94760284E0888B6CE0CE010E94760224
:1006100061E0CE010E9476028BE39FE10197F1F742
:1006200082E0898B66E0CE01DF91CF911F910F911F
:10063000FF90EF900C947602089580E090E008958A
:10064000009769F0FC0101900020E9F73197AF01B4
:10065000481B590BBC0182E591E00C94970080E0A7
:1006600090E008958F929F92AF92BF920F931F9345
:10067000CF93DF93CDB7DEB7A1970FB6F894DEBF67
:100680000FBECDBF19A2423008F44AE08E010F5DC3
:100690001F4F842E912CA12CB12CA50194010E94F6
:1006A000FB05E62FB901CA0101501109EA3014F423
:1006B000E05D01C0E95CD801EC93232B242B252BB2
:1006C00061F7C8010E942003A1960FB6F894DEBF1F
:1006D0000FBECDBFDF91CF911F910F91BF90AF9013
:1006E0009F908F9008954F925F926F927F928F921A
:1006F0009F92AF92BF92CF92DF92EF92FF926B01E7
:100700007C01B42E9B01AC010E945408882319F08F
:100710008CE091E027C026013701E89477F82FEFAD
:100720003FEF4FE75FE7C301B2010E945408811118
:100730000DC02FEF3FEF4FE75FE7C301B2010E940B
:100740008A0618161CF480E191E00CC02FEF3FEFF1
:100750004FE75FE4C701B6010E94E207181684F470
:1007600084E191E0FF90EF90DF90CF90BF90AF9049
:100770009F908F907F906F905F904F900C9420038C
:100780002FEF3FEF4FE75FECC701B6010E948A06EB
:1007900087FDE6CF20E030E0A901C701B6010E9445
:1007A0008A0687FF09C08DE20E948C004C01F7FA8F
:1007B000F094F7F8F09402C0812C912CA12C60E009
:1007C00070E080E09FE3AB1441F020E030E040E2D5
:1007D00051E40E948F06A394F6CF9B01AC01C701A0
:1007E000B6010E941E062B013C010E9401076B010D
:1007F0007C010E9430079B01AC01C301B2010E9441
:100800001D062B013C014AE0C701B6010E943203DC
:100810007C01E80CF91CBB2029F08EE20E948C00C0
:10082000E80EF91EDB2CDD2021F120E030E040E273
:1008300051E4C301B2010E94E7072B013C010E9471
:1008400001074B01A12CB12C4AE0C501B4010E9463
:100850003203E80EF91EC501B4010E9430079B0166
:10086000AC01C301B2010E941D062B013C01DA94C8
:10087000DACFC701FF90EF90DF90CF90BF90AF909D
:100880009F908F907F906F905F904F9008950E94FF
:100890005F081F920F920FB60F9211242F933F9370
:1008A0008F939F93AF93BF9380913D0190913E01B1
:1008B000A0913F01B091400130913C0123E0230F12
:1008C0002D3720F40196A11DB11D05C026E8230F88
:1008D0000296A11DB11D20933C0180933D01909390
:1008E0003E01A0933F01B09340018091410190915E
:1008F0004201A0914301B09144010196A11DB11D97
:100900008093410190934201A0934301B09344012D
:10091000BF91AF919F918F913F912F910F900FBEFB
:100920000F901F901895789484B5826084BD84B52B
:10093000816084BD85B5826085BD85B5816085BDDA
:1009400080916E00816080936E0010928100809192
:10095000810082608093810080918100816080931A
:100960008100809180008160809380008091B1003F
:1009700084608093B1008091B00081608093B0006A
:1009800080917A00846080937A0080917A008260FE
:1009900080937A0080917A00816080937A008091C0
:1009A0007A00806880937A001092C10062E082E54C
:1009B00091E00E947902CBE9D0E001E010E070E024
:1009C000E72E70E0F72E10924D0110924E0110921A
:1009D0004F01109250011092510161E088E00E9495
:1009E0003F0160E088E00E940F0164E170E080E078
:1009F00090E00E94A00161E088E00E940F01CE011A
:100A00000197F1F760E088E00E943F0161E1C62EA6
:100A100067E2D62E0E94EB00892B29F481E0C81AE8
:100A2000D108C1F774C051E1C52E57E2D52E0E94FE
:100A3000EB00019729F481E0C81AD108C1F767C01B
:100A400038E2A32EB12C47E0D42EC12C21E1822E16
:100A500027E2922E0E94EB00892B29F481E0881A6C
:100A60009108C1F754C00E947B012B013C0191E128
:100A7000892E97E2992E0E94EB00019729F481E0DC
:100A8000881A9108C1F743C00E947B01DC01CB01A9
:100A900084199509A609B7098997A105B10568F0D8
:100AA000EC2DF0E0EB5BFE4F2085C8010D2C01C062
:100AB000880F0A94EAF7822B8087D11004C0C39470
:100AC00087E0D82E01C0DA9481E0A81AB10809F0B5
:100AD000BDCF60914D0170E080E090E00E94300752
:100AE00060934501709346018093470190934801BC
:100AF00060914F0170E080E090E00E9430076093C9
:100B0000490170934A0180934B0190934C01E1E0BD
:100B1000809165018111E0E0E195F0E0EE5AFE4F31
:100B20006489606882E591E00E94760288E191E044
:100B30000E9420036091490170914A0180914B010C
:100B400090914C0142E00E9473038FED0E948C0053
:100B500087E291E00E942003E0916501E23010F409
:100B6000E15001C0E1E0F0E0EE5AFE4F64896068B8
:100B700082E591E00E9476028BE291E00E942003E0
:100B80006091450170914601809147019091480123
:100B900042E00E94730388E391E00E94200368EE24
:100BA00073E080E090E00E94A001E114F10409F4F8
:100BB0000ACF0E94000007CFE2E5F1E01382128223
:100BC00084E091E0918380838CE084838FEF858340
:100BD0008BE0868385E0878384E0808783E081875C
:100BE00082E082871386148615861686178661E052
:100BF000CF010C947902A1E21A2EAA1BBB1BFD01A6
:100C00000DC0AA1FBB1FEE1FFF1FA217B307E407EB
:100C1000F50720F0A21BB30BE40BF50B661F771F43
:100C2000881F991F1A9469F7609570958095909523
:100C30009B01AC01BD01CF0108955058BB27AA27E5
:100C40000E9435060C94A8070E949A0738F00E946B
:100C5000A10720F039F49F3F19F426F40C9497076C
:100C60000EF4E095E7FB0C949107E92F0E94B90779
:100C700058F3BA17620773078407950720F079F4D1
:100C8000A6F50C94DB070EF4E0950B2EBA2FA02DE1
:100C90000B01B90190010C01CA01A0011124FF2729
:100CA000591B99F0593F50F4503E68F11A16F04024
:100CB000A22F232F342F4427585FF3CF4695379523
:100CC0002795A795F0405395C9F77EF41F16BA0BE8
:100CD000620B730B840BBAF09150A1F0FF0FBB1F96
:100CE000661F771F881FC2F70EC0BA0F621F731FDF
:100CF000841F48F4879577956795B795F7959E3F3C
:100D000008F0B0CF9395880F08F09927EE0F9795CC
:100D1000879508950E946D0708F481E008950E9468
:100D2000A3060C94A8070E94A10758F00E949A07F6
:100D300040F029F45F3F29F00C94910751110C9475
:100D4000DC070C9497070E94B90768F39923B1F365
:100D5000552391F3951B550BBB27AA2762177307E1
:100D6000840738F09F5F5F4F220F331F441FAA1F75
:100D7000A9F335D00E2E3AF0E0E832D09150504031
:100D8000E695001CCAF72BD0FE2F29D0660F771FDF
:100D9000881FBB1F261737074807AB07B0E809F0C5
:100DA000BB0B802DBF01FF2793585F4F3AF09E3F4A
:100DB000510578F00C9491070C94DC075F3FE4F345
:100DC000983ED4F3869577956795B795F7959F5F8D
:100DD000C9F7880F911D9695879597F90895E1E0D9
:100DE000660F771F881FBB1F621773078407BA0738
:100DF00020F0621B730B840BBA0BEE1F88F7E09593
:100E000008950E94C10788F09F5798F0B92F99273D
:100E1000B751B0F0E1F0660F771F881F991F1AF0E5
:100E2000BA95C9F714C0B13091F00E94DB07B1E068
:100E300008950C94DB07672F782F8827B85F39F067
:100E4000B93FCCF3869577956795B395D9F73EF47E
:100E500090958095709561957F4F8F4F9F4F089526
:100E6000E89409C097FB3EF4909580957095619544
:100E70007F4F8F4F9F4F9923A9F0F92F96E9BB27FA
:100E80009395F695879577956795B795F111F8CF76
:100E9000FAF4BB0F11F460FF1BC06F5F7F4F8F4FE1
:100EA0009F4F16C0882311F096E911C0772321F0D7
:100EB0009EE8872F762F05C0662371F096E8862F6F
:100EC00070E060E02AF09A95660F771F881FDAF7C6
:100ED000880F9695879597F90895990F0008550FF3
:100EE000AA0BE0E8FEEF16161706E807F907C0F0B0
:100EF00012161306E407F50798F0621B730B840BB8
:100F0000950B39F40A2661F0232B242B252B21F491
:100F100008950A2609F4A140A6958FEF811D811D31
:100F2000089597F99F6780E870E060E008959FEF6B
:100F300080EC089500240A94161617061806090670
:100F4000089500240A94121613061406050608953F
:100F5000092E0394000C11F4882352F0BB0F40F4C7
:100F6000BF2B11F460FF04C06F5F7F4F8F4F9F4F07
:100F7000089557FD9058440F551F59F05F3F71F089
:100F80004795880F97FB991F61F09F3F79F08795F0
:100F90000895121613061406551FF2CF4695F1DF79
:100FA00008C0161617061806991FF1CF8695710509
:100FB000610508940895E894BB2766277727CB013D
:100FC00097F908950E946D0708F48FEF08950E9425
:100FD000FA070C94A8070E949A0738F00E94A1070C
:100FE00020F0952311F00C9491070C94970711248D
:100FF0000C94DC070E94B90770F3959FC1F3950F1D
:1010000050E0551F629FF001729FBB27F00DB11D8C
:10101000639FAA27F00DB11DAA1F649F6627B00D1C
:10102000A11D661F829F2227B00DA11D621F739F05
:10103000B00DA11D621F839FA00D611D221F749F13
:101040003327A00D611D231F849F600D211D822F5A
:10105000762F6A2F11249F5750409AF0F1F0882381
:101060004AF0EE0FFF1FBB1F661F771F881F9150AE
:101070005040A9F79E3F510580F00C9491070C94C5
:10108000DC075F3FE4F3983ED4F386957795679548
:10109000B795F795E7959F5FC1F7FE2B880F911DD8
:1010A0009695879597F908950E946D07880B990B7F
:1010B0000895EE0FFF1F0590F491E02D099481E053
:0C10C00090E0F8940C946408F894FFCFC2
:1010CC0000000000700297001D031C036E616E008F
:1010DC00696E66006F7666002054656D706572618E
:1010EC00747572653A2000204320002048756D69A4
:0C10FC0064697479203A2000202520004F
:00000001FF
